:020000040000FA
:0400000080311C2807
:100008007E1480310B1F1A282100141E122820008C
:10001800141E12288C31142480311A282100141D32
:100028001A282000141D1A288B31AA237E100900D3
:1000380080311E28273084008E308500A03086004D
:10004800003087002A308B31B52380319730840007
:100058008D308500203086000130870022308B31BA
:10006800B5238031CA3084000030850016308B31CA
:10007800AF237E1020008F31B32F20003108803944
:10008800B6003608BB003135B6003608C100B01BD3
:100098004114410803195D28410A031D5B280030FB
:1000A800B1000030B0000030AF000030AE00B01733
:1000B80065280030B1000030B0000030AF000030DB
:1000C800AE0035088039B6003608BB063535B600AF
:1000D8003608BC00B41B3C143C08031980283C0AB1
:1000E800031D7E280030B5000030B4000030B30096
:1000F8000030B200B41788280030B5000030B400D2
:100108000030B3000030B2003C08031D4108031D55
:1001180096280030B1000030B0000030AF00003049
:10012800AE0008002E08B6003608A00034088D314D
:100138005525803120002108C7002008C600460840
:10014800B600B701B801B9013908C0003808BF00C6
:100158003708BE003608BD004708B600B701B80129
:10016800B9013908C5003808C4003708C300360883
:10017800C2002F08B6003608A00033088D31552577
:10018800803120002108C7002008C6004608B600B4
:10019800B701B801B9013608BD073708BE3D3808B0
:1001A800BF3D3908C03D4708B600B701B801B901DD
:1001B8003608C2073708C33D3808C43D3908C53D6D
:1001C8003008B6003608A00032088D315525803138
:1001D80020002108C7002008C6004608B600B7015D
:1001E800B801B9013608BD073708BE3D3808BF3D1C
:1001F8003908C03D4708B600B701B801B90136084B
:10020800C2073708C33D3808C43D3908C53D083022
:10021800BD35BE0DBF0DC00D890B0C292F08B600CA
:100228003608A00032088D3155258031200021087C
:10023800C7002008C6004608BD074708BE3D003075
:10024800BF3DC03D2E08B6003608A00033088D31EA
:100258005525803120002108C7002008C60046081F
:10026800BD074708BE3D0030BF3DC03D0830BD3525
:10027800BE0DBF0DC00D890B3B292E08B6003608F0
:10028800A00032088D315525803120002108C70093
:100298002008C6004608BD074708BE3D0030BF3DE0
:1002A800C03D2F08B6003608A00034088D3155250A
:1002B800803120002108C7002008C6004608C20770
:1002C8004708C33D0030C43DC53D3008B600360878
:1002D800A00033088D315525803120002108C70042
:1002E8002008C6004608C2074708C33D0030C43D81
:1002F800C53D3008B6003608A00034088D315525B4
:10030800803120002108C7002008C6004608B60032
:100318004708B700B801B9010830B635B70DB80DB0
:10032800B90D890B91293608C2073708C33D38082B
:10033800C43D3908C53D3D08B6003E08B7003F0832
:10034800B8004008B9001830B936B80CB70CB60C6C
:10035800890BA8293608C2073708C33D3808C43DA9
:100368003908C53D0830BD35BE0DBF0DC00D890B20
:10037800B72941083C07B600B701B70D3608823ED9
:10038800C600FF30373DC700C41BDF290130C23526
:10039800C30DC40DC50D890BCB29C01B42140130F8
:1003A800BD35BE0DBF0DC00D890BD429FF30C60762
:1003B800FF30C73DC829BC01C01FF829FF303D05E3
:1003C800B600FF303E05B700FF303F05B8007F306C
:1003D8004005B900390838043704360403194218AF
:1003E800F629F829BC01BC0A3C080319212A013066
:1003F800C2070030C33D0030C43D0030C53D451C38
:10040800212A4208B6004308B7004408B800450846
:10041800B9000130BA00B937B80CB70CB60CBA0B32
:100428000F2A3908C5003808C4003708C300360841
:10043800C2000130C6070030C73D4708803AB60001
:1004480080303602031D2A2AFF304602031C362A52
:100458007F302000C5008030C4000030C300003069
:10046800C200602A20004708803AB6008030360271
:10047800031D402A0130460203184D2A003020008F
:10048800C5000030C4000030C3000030C200BB010A
:10049800602A20004608B6003608C100FF30C205B1
:1004A800FF30C3057F30C4050030C5054118C417A7
:1004B8004136B6003608C5003B08B6003608C50404
:1004C8004508B1004408B0004308AF004208AE0038
:1004D800080020004B088039D0005008D8004B3560
:1004E800D0005008DA00CA1B5A145A0803198A2A7D
:1004F8005A0A031D872A0030CB000030CA0000309A
:10050800C9000030C800CA17CB01922A0030CB00BE
:100518000030CA000030C9000030C8004F088039D8
:10052800D0005008D90059085806031D58174F35F0
:10053800D0005008D900CE1B591459080319B22A03
:10054800590A031DAF2A0030CF000030CE0000301A
:10055800CD000030CC00CE17CF01BA2A0030CF0032
:100568000030CE000030CD000030CC005A085902CF
:100578000318002B581FC42A8030D0005008D80612
:100588005A08D0005008DB005908D0005008DA009B
:100598005B08D0005008D9004808D0005008DB009C
:1005A8004C08D0005008C8005B08D0005008CC00A8
:1005B8004908D0005008DB004D08D0005008C90099
:1005C8005B08D0005008CD004A08D0005008DB0076
:1005D8004E08D0005008CA005B08D0005008CE0072
:1005E8004B08D0005008DB004F08D0005008CB0063
:1005F8005B08D0005008CF00DB015908D000D101BA
:100608005108D3005A085002D200031CD3035308E0
:10061800803AD40080305402031D142B1A30520241
:10062800031C482B20004B084A04490448040319BA
:100638001F2B0130202B0030D0005008DB00003089
:10064800CB000030CA000030C9000030C80059088B
:10065800D0005008DA004D2B5B1C382B5B36013874
:10066800D0005008DB003A2B0310DB0C4818DB17CE
:100678000130D000CB37CA0CC90CC80CD00B3E2BAC
:100688000130D0005008DA07200059085A02031C2C
:10069800302B581B7E2B5A08031D5B2B0030CB00D8
:1006A8000030CA000030C9000030C80008004C08FB
:1006B800C8074D08C93D4E08CA3D4F08CB3D4B1CE5
:1006C800F82B5B1C6D2B5B360138D0005008DB0023
:1006D8006F2B0310DB0C4818DB170130D000CB3729
:1006E800CA0CC90CC80CD00B732B0130D0005008B1
:1006F800DA07F82B4B08803AD0004F08803A5002AE
:10070800031D902B4E084A02031D902B4D084902E9
:10071800031D902B4C0848020318C82BFF30D0004B
:10072800FF30D100FF30D200FF30D30048084C0220
:10073800D40049084D3BD5004A084E3BD6004B082B
:100748004F3BD7005408D0075508D13D5608D23D35
:100758005708D33D5308CB005208CA005108C900B6
:100768005008C8008030D0005008D806DB09DB0AE2
:100778005B08031DD02B0130C8070030C93D00308D
:10078800CA3D0030CB3DD02B4C08C8024D08C93BB0
:100798004E08CA3B4F08CB3B4B084A04490448045F
:1007A800031DF62B5B08031DF62B0030CB00003031
:1007B800CA000030C9000030C80008000130C83540
:1007C800C90DCA0DCB0D890BE32BDB1B48145B1C31
:1007D800EF2B0314F02B0310DB0D5A080319F62B2B
:1007E8000130DA02CA1FE22BD901DB1F032C5B0898
:1007F8007F3903194818012C032CD901D90A590843
:1008080003192F2C0130C8070030C93D0030CA3DFC
:100818000030CB3D4B1C2F2C4808D0004908D10094
:100828004A08D2004B08D3000130D400D337D20C89
:10083800D10CD00CD40B1A2C5308CB005208CA0088
:100848005108C9005008C8005A0A03192F2C013052
:10085800D0005008DA075A0A031D5A08031D3F2C16
:100868000030CB000030CA000030C9000030C8009A
:100878005A080319D8015A1C432CCA17472C7F3031
:10088800D0005008CA055A36D0005008CB00D81FEF
:100898000800CB1708002100E4002000670A860042
:1008A8000130870001086707E80068088600013002
:1008B80087000130443F2100E100E501640886001B
:1008C8008701010865020318080061080139200042
:1008D800E80068082100E00061362000E8006808A8
:1008E8002100E100650820006707E8006808043E69
:1008F8008600013087000108E900EA016908210043
:10090800E20020006A082100E3006003031DA42C14
:1009180062082000A000210063082000A100A201B5
:10092800A301003085311525843120002308B50046
:100938002208B4002108B3002008B200C030BB2C44
:1009480062082000A000210063082000A100A20185
:10095800A301003085311525843120002308B50016
:100968002208B4002108B3002008B2004030B100CA
:10097800FA30B000FA30AF00FB30AE0080314120D1
:10098800843120003108CF003008CE002F08CD0078
:100998002E08CC004730CB006830CA009030C90020
:1009A8000030C80082316D22843120004B08DF00FE
:1009B8004A08DE004908DD004808DC0087311D27A9
:1009C800843120005D082100E30020005C0821003C
:1009D800E20063082000A100210062082000A000B6
:1009E800210065082000E8006808A20021006408CA
:1009F8008631AF2684312100653564072000E9007F
:100A08006908193E860087012008C03F2108C13FB8
:100A18002100DE0101302000E80068082100E50718
:100A2800622C2000A8002808031DA31F2B2D2009D5
:100A3800AA002109AB002209AC002309AD00AA0ACB
:100A48000319AB0A0319AC0A0319AD0A332D23089D
:100A5800AD002208AC002108AB002008AA0023083A
:100A6800220421042004031D422D0030A30000307D
:100A7800A2000030A1000030A00008009630A400B9
:100A88002408A900FE302D050319692D0130A400A2
:100A98002408A9070130AD36AC0CAB0CAA0C890BA5
:100AA8004F2D462D0130A4002408A9070130AA07BC
:100AB8000030AB3D0030AC3D0030AD3D0130AD36CF
:100AC800AC0CAB0CAA0C890B632DFF302D05031958
:100AD8007B2D562D02302902031C7D2D0130A902E1
:100AE8000130AA35AB0DAC0DAD0D890B752DAC1FC2
:100AF8006E2D2918872DFF30AA05FF30AB057F30F2
:100B0800AC05FF30AD050310A90C2908A400A50108
:100B1800A601A7011830A435A50DA60DA70D890BB0
:100B28008F2D2408AA042508AB042608AC0427083E
:100B3800AD042808031DA31FA22DAD172D08A3007F
:100B48002C08A2002B08A1002A08A00008002000F9
:100B5800EE00911E0800292E8B31FC2385312000E0
:100B6800EB006B08ED0047306D06031D08000130EF
:100B7800EB006B082100DD0008008B31FC23853178
:100B88004F3A031DCE2D02302000EB006B082100E8
:100B9800DD0008002100DD0108008B31FC238531D0
:100BA800003A031D0800210066088C316D24853148
:100BB800013A031D080003302000EB006B082100F8
:100BC800DD0020006E080C3E8600013087008101A0
:100BD80008008B31FC2385312000EB006E080C3EA9
:100BE80086000130870001086E07EC006C08043E9F
:100BF8008600013087006B0881000130EB006E0829
:100C08000C3E8600013087006B0881076E080C3E99
:100C18008600013087006E088400013085000008D6
:100C28000102031C08006E088F3168278531013ADC
:100C3800031DCE2D20006E08EB006B08E700210095
:100C4800670884314F248531CE2D21005D08003A94
:100C58000319B02D013A0319C12D033A0319D12DF7
:100C6800013A0319ED2DCE2D08002000B3008B3179
:100C7800E8238631013A031D0800A52E2000330819
:100C8800143E86000130870081018D31B9258631F7
:100C98005D3020002102BF3003192002031C080028
:100CA8000130B20032082100DC00080020003308BF
:100CB800143E860001308700330884000130850027
:100CC800000801020318A22E8D31B92586312000B3
:100CD8003308143E86000130870001353307B2001F
:100CE8003208043E8600013087002008C03F2108F2
:100CF800C13F0130B2003308143E8600013087003E
:100D0800320881073308143E860001308700330813
:100D180084000130850000080102031C0800330824
:100D28008D3175258631013A031DA22E2000330826
:100D3800B2003208A80031088E31EC262100DC010F
:100D4800080021005C08003A0319422E013A0319F1
:100D58005A2EA22E08002000A7002208A300013066
:100D6800A335FF3E031DB42E23352707A400240A0C
:100D780086008701403FA500413FA60021082602C2
:100D8800031DC82E200825020318DB2E2208A30005
:100D98000130A335FF3E031DCD2E23352707A400C0
:100DA800240A86008701403FA000413F062F220801
:100DB800A3000130A335FF3E031DDE2E2335270790
:100DC800A4002408033E86008701403FA500413F58
:100DD800A60026082102031DF32E25082002031869
:100DE800072F2208A3000130A335FF3E031DF82E6C
:100DF80023352707A4002408033E86008701403FC7
:100E0800A000413FA1008B31A3238631013A031D85
:100E18000800033020002202031C08002030A30031
:100E2800D130A40020082302A0002108243BA100FF
:100E38000800031020005E0D5F0DE0006008E6006A
:100E48006608031D302F0030DF000030DE00003060
:100E5800DD000030DC0008005C08E0005D08E1000F
:100E68005E08E2005F08E3001F30E336E20CE10CA5
:100E7800E00C890B392F6008E4006408E500DE17F0
:100E8800FF30DC05FF30DD05FF30DE050030DF0513
:100E98009630E602E61F632F6608803A973E031CE9
:100EA800272F0130DF36DE0CDD0CDC0C890B562FCA
:100EB8000130E0006008E6070319742F552F203031
:100EC80066020318272F66080319742F0130DC35D2
:100ED800DD0DDE0DDF0D890B6B2F0130E602672F6C
:100EE800650803190800DC09DD09DE09DF09DC0AE9
:100EF8000319DD0A0319DE0A0319DF0A08002000B6
:100F0800A2008B31A3238731003A03199D2F2000BB
:100F1800220A86000130870001352207A000200838
:100F2800043E8600013087003F30C03F1F30C13F7C
:100F3800AE2F2000220A86000130870001352207E3
:100F4800A0002008043E8600013087009F30C03F83
:100F58000F30C13F2208023E86000130870001356C
:100F68002207A0002008043E8600013087009F3039
:100F7800C03F0F30C13F2208860001308700013092
:100F8800433FA100220886000130870001082102A2
:100F98000318DF2F21352207A0002008043E860011
:100FA800013087006F30C03F1730C13F0130A000CB
:100FB8002008A107C62F2208143E860001308700AA
:100FC80081012100DC0108008F312A2787318B310C
:100FD800F22387318B31A62387318C31C2248731A4
:100FE8008C31082487318C31DE2487318C314A24B6
:080FF80087318D31DC25080072
:10174600210020080800163021009900080020001A
:1017560014118E317E260800640080010131890B48
:10176600B02B0034FE0012001E00FE0BB62B003418
:10177600200021082100D300200020082100D200EB
:101786000800200021082100D700200020082100A1
:10179600D6000800200021082100D50020002008DE
:1017A6002100D4000800200021082100CF002000DD
:1017B60020082100CE000800200021082100CB00CF
:1017C600200020082100CA0008000030200011195E
:1017D6000130A0002008031D1111200808007030F8
:1017E60021009B0080309C009A019D011C1B080073
:1017F600F92B2000911EFC2B2100DF0123009D1CEC
:10180600062C1D121D1619080800853025009300A8
:10181600920191019401FF302100D800FF30D900D8
:1018260008002000141221004D08F1004C08F000B9
:101836008C313B248C318E31B52608002000A00067
:10184600200A8600870181012008023E8600870162
:101856008101810A08002000A40024088C31FA24A2
:101866008C31003A031D392C013008000030080085
:101876002800111D452C11107108900070088F006A
:10188600111408007108900070088F0008002000ED
:101896009B019901980119082100DB002000180816
:1018A6002100DA002000111011309A0008004F3094
:1018B600F0070030F13D20001E1D682C1E10710837
:1018C6009D0070089C001E14080071089D00700899
:1018D6009C0008002000A5008B31A3238C31013A1F
:1018E600031D7F2C200025088C3181248C31013A80
:1018F600031D7F2C01300800003008002000A400E2
:1019060024088D3117258C31013A031D942C2000B3
:1019160024088C31FA248C31013A031D942C0130B1
:101926000800003008002000A40024088D31172587
:101936008C31003A031DA92C200024088C31FA248E
:101946008C31013A031DA92C013008000030080033
:101956002100C901C801013022008F00210048354D
:10196600BA3E86008701403FF000413FF1008C31CE
:101976005A240130F20072082100DE070800200018
:101986009F01E8309D0090309C001D082100D10089
:1019960020001C082100D00020001411210014157D
:1019A60051302000A0000E30A1008B31D62311301B
:1019B60020009E0008002800920163309000C0308D
:1019C6008F0010082100CD0028000F082100CC0050
:1019D6002000141221001416AB302000A0000C3099
:1019E600A1008B31DF232130280091000800200060
:1019F600A300230A86000130870001352307A000D3
:101A06002008043E860001308700403FA100413F88
:101A1600A200173022026F30031921020318152D78
:101A260000300800013008002000A3002308023E11
:101A360086000130870001352307A0002008043EF8
:101A4600860001308700403FA100413FA2001730C9
:101A560022026F30031921020318332D00300800CB
:101A6600013008002000A200A1012208860087019B
:101A76000108210203184F2D21352207A000200856
:101A8600193E860087019030C03FE830C13F0130E3
:101A9600A0002008A107382D2208253E86008701D0
:101AA600810108002000A800A401A5012008A200C9
:101AB600A3012208A6002308A700281C662D2608D5
:101AC600A4072708A53D0130A635A70D890B672D6C
:101AD6000310A80C2808031D602D2508A100240862
:101AE600A00008002000A5008B31A3238D31013A08
:101AF600031D852D200025088C3196248D31013A51
:101B06000319932D8B31A3238D31003A031D952D97
:101B1600200025088C312E248D31003A0319952D8D
:101B26000130080000300800083400340134023463
:101B360000340034003400340034003400340034FF
:101B460000340034003400340034003400340034EF
:101B560000340834063407340034003400340034CA
:101B660000340034003400340034003425001108F9
:101B76002000A2002208A500250012082000A200CD
:101B86002208A6002100580820002502A3002100F3
:101B960059082000263BA40026082100D900200071
:101BA60025082100D80020002408A1002308A00051
:101BB6000800093023009F0090309D0004309E00ED
:101BC60040309B0003309C0000302000A000003015
:101BD600A1008B31C4238D3100302000A0000030DD
:101BE600A1008B31CD238D3100302000A0000030C4
:101BF600A1008B31BB232100DF0108002000A200D9
:101C060022088600013087000130433FA1002208E8
:101C1600860001308700010821020318202E2108C2
:101C26002207A0002008043E8600013087008101BB
:101C36000130A0002008A1070A2E22080C3E8600CB
:101C46000130870081010800013406346034F03425
:101C5600C034E0346034F034C034E0346034F034FE
:101C6600C034E0346034F034C034E0346034F034EE
:101C7600C034E0346034F034C034E034003400342E
:101C860000340034003400340034003400340034AE
:101C9600003400340034063400340034210049088E
:101CA600031D08004708FF3EF200FF30031800300E
:101CB600F3007308803A803C031D632E72084802C5
:101CC6000318782E22000F358F000130F2007208BB
:101CD6002100C8074835BA3E86008701403FF0001C
:101CE600413FF1008C315A24080022008F01210067
:101CF600C901C90A080020000908F4007408F500A3
:101D06000808F4007408F6000308F4007408F700E5
:101D16000508F4007408F8000408F4007408F900D3
:101D26000708F4007408FA000608F4007408FB00BB
:101D360021004E084F040319A52E4F088A004E08AD
:101D46000A008E31780820008500790884007A0818
:101D560087007B0886007708830076088800750868
:101D66008900080020000908F3007308F400080839
:101D7600F3007308F5000308F3007308F60005087E
:101D8600F3007308F7000408F3007308F800070867
:101D9600F3007308F9000608F3007308FA0021003F
:101DA6004A084B040319DC2E4B088A004A080A002D
:101DB6008E3177082000850078088400790887002E
:101DC6007A088600760883007508880074088900FA
:101DD60008002000AF00B0012F0886008701010827
:101DE6003002031808002808033E860001308700E9
:101DF60001352807A90030352907AA002A08043E1C
:101E0600860001308700403FAB00413FAC002B0904
:101E1600A0002C09A1003008AD002D08A2002F0853
:101E26008631AF268E31200030352F07AE002E08C2
:101E3600193E860087012008C03F2108C13F2100C6
:101E4600DE0101302000A9002908B007EF2E22008C
:101E560090018F018C018D018E01073021009000C9
:101E6600FF308C00FF308D00BF308E00C0308F00F9
:101E7600FF3023008F0078308E003F308D00073012
:101E860090003F308C0024008F0190018D018C0161
:101E96008E0121009717250090018C018D018E017E
:101EA6008F01FF3026008C00FF308D00FF308E0042
:101EB600FF308F000730900017303C00BD00123015
:101EC600990024303D00A60008002000A600A301CA
:101ED60026088600013087000130433FA40026080B
:101EE600023E8600013087000108240203189E2F57
:101EF600A50124082607A0002008043E860001301C
:101F060087000108A100250A892FA136890B882F91
:101F1600210801392307A2002208A3000130A000EE
:101F26002008A50708302502031C7C2F0130A000DD
:101F36002008A407722F2608023E8600013087007B
:101F460001082607A0002008043E8600013087000D
:101F560001082306031DB12F0130080000300800D8
:101F66008731E8278F318B170B17C7308C31212427
:101F76008F31A1308D3135258F3135308E310126A7
:101F86008F312030873183278F3120000E1CD12FCF
:101F960001302100E8006808A000D32F2100A0012D
:101FA6002000111DE02FA1302100E8006808200064
:101FB600B1002030863139268F312000911EF02F56
:101FC60020302100E8006808E600A130E900690831
:101FD600E70035308531AB258F318B31A3238F3127
:101FE600013A031DD32F153021005E02031CD32FA7
:101FF600A1308D3135258F31D32F0034903468349C
:102006004734FB34FA34FA344034FB34FA34FA34C5
:02201600C034D4
:020000040001F9
:04000E00C4EFFFD369
:00000001FF
